{
  "_format": "hh-sol-artifact-1",
  "contractName": "Auction",
  "sourceName": "contracts/Auction.sol",
  "abi": [
    {
      "inputs": [
        {
          "internalType": "contract IERC20",
          "name": "_token",
          "type": "address"
        },
        {
          "internalType": "contract IERC721",
          "name": "_nft",
          "type": "address"
        }
      ],
      "stateMutability": "nonpayable",
      "type": "constructor"
    },
    {
      "anonymous": false,
      "inputs": [
        {
          "indexed": true,
          "internalType": "address",
          "name": "previousOwner",
          "type": "address"
        },
        {
          "indexed": true,
          "internalType": "address",
          "name": "newOwner",
          "type": "address"
        }
      ],
      "name": "OwnershipTransferred",
      "type": "event"
    },
    {
      "inputs": [],
      "name": "AUCTION_SERVICE_FEE_RATE",
      "outputs": [
        {
          "internalType": "uint256",
          "name": "",
          "type": "uint256"
        }
      ],
      "stateMutability": "view",
      "type": "function"
    },
    {
      "inputs": [],
      "name": "MINIMUM_BID_RATE",
      "outputs": [
        {
          "internalType": "uint256",
          "name": "",
          "type": "uint256"
        }
      ],
      "stateMutability": "view",
      "type": "function"
    },
    {
      "inputs": [
        {
          "internalType": "uint256",
          "name": "_auctionId",
          "type": "uint256"
        }
      ],
      "name": "cancelAuction",
      "outputs": [],
      "stateMutability": "nonpayable",
      "type": "function"
    },
    {
      "inputs": [
        {
          "internalType": "uint256",
          "name": "_tokenId",
          "type": "uint256"
        },
        {
          "internalType": "uint256",
          "name": "_initialPrice",
          "type": "uint256"
        },
        {
          "internalType": "uint256",
          "name": "_startTime",
          "type": "uint256"
        },
        {
          "internalType": "uint256",
          "name": "_endTime",
          "type": "uint256"
        }
      ],
      "name": "createAuction",
      "outputs": [],
      "stateMutability": "nonpayable",
      "type": "function"
    },
    {
      "inputs": [
        {
          "internalType": "uint256",
          "name": "_auctionId",
          "type": "uint256"
        }
      ],
      "name": "finishAuction",
      "outputs": [],
      "stateMutability": "nonpayable",
      "type": "function"
    },
    {
      "inputs": [
        {
          "internalType": "uint256",
          "name": "_auctionId",
          "type": "uint256"
        }
      ],
      "name": "getAuction",
      "outputs": [
        {
          "components": [
            {
              "internalType": "address",
              "name": "auctioneer",
              "type": "address"
            },
            {
              "internalType": "uint256",
              "name": "_tokenId",
              "type": "uint256"
            },
            {
              "internalType": "uint256",
              "name": "initialPrice",
              "type": "uint256"
            },
            {
              "internalType": "address",
              "name": "previousBidder",
              "type": "address"
            },
            {
              "internalType": "uint256",
              "name": "lastBid",
              "type": "uint256"
            },
            {
              "internalType": "address",
              "name": "lastBidder",
              "type": "address"
            },
            {
              "internalType": "uint256",
              "name": "startTime",
              "type": "uint256"
            },
            {
              "internalType": "uint256",
              "name": "endTime",
              "type": "uint256"
            },
            {
              "internalType": "bool",
              "name": "completed",
              "type": "bool"
            },
            {
              "internalType": "bool",
              "name": "active",
              "type": "bool"
            },
            {
              "internalType": "uint256",
              "name": "auctionId",
              "type": "uint256"
            }
          ],
          "internalType": "struct Auction.AuctionInfo",
          "name": "",
          "type": "tuple"
        }
      ],
      "stateMutability": "view",
      "type": "function"
    },
    {
      "inputs": [
        {
          "internalType": "bool",
          "name": "_active",
          "type": "bool"
        }
      ],
      "name": "getAuctionByStatus",
      "outputs": [
        {
          "components": [
            {
              "internalType": "address",
              "name": "auctioneer",
              "type": "address"
            },
            {
              "internalType": "uint256",
              "name": "_tokenId",
              "type": "uint256"
            },
            {
              "internalType": "uint256",
              "name": "initialPrice",
              "type": "uint256"
            },
            {
              "internalType": "address",
              "name": "previousBidder",
              "type": "address"
            },
            {
              "internalType": "uint256",
              "name": "lastBid",
              "type": "uint256"
            },
            {
              "internalType": "address",
              "name": "lastBidder",
              "type": "address"
            },
            {
              "internalType": "uint256",
              "name": "startTime",
              "type": "uint256"
            },
            {
              "internalType": "uint256",
              "name": "endTime",
              "type": "uint256"
            },
            {
              "internalType": "bool",
              "name": "completed",
              "type": "bool"
            },
            {
              "internalType": "bool",
              "name": "active",
              "type": "bool"
            },
            {
              "internalType": "uint256",
              "name": "auctionId",
              "type": "uint256"
            }
          ],
          "internalType": "struct Auction.AuctionInfo[]",
          "name": "",
          "type": "tuple[]"
        }
      ],
      "stateMutability": "view",
      "type": "function"
    },
    {
      "inputs": [
        {
          "internalType": "uint256",
          "name": "_auctionId",
          "type": "uint256"
        },
        {
          "internalType": "uint256",
          "name": "_bid",
          "type": "uint256"
        }
      ],
      "name": "joinAuction",
      "outputs": [],
      "stateMutability": "nonpayable",
      "type": "function"
    },
    {
      "inputs": [
        {
          "internalType": "address",
          "name": "",
          "type": "address"
        },
        {
          "internalType": "address",
          "name": "",
          "type": "address"
        },
        {
          "internalType": "uint256",
          "name": "",
          "type": "uint256"
        },
        {
          "internalType": "bytes",
          "name": "",
          "type": "bytes"
        }
      ],
      "name": "onERC721Received",
      "outputs": [
        {
          "internalType": "bytes4",
          "name": "",
          "type": "bytes4"
        }
      ],
      "stateMutability": "pure",
      "type": "function"
    },
    {
      "inputs": [],
      "name": "owner",
      "outputs": [
        {
          "internalType": "address",
          "name": "",
          "type": "address"
        }
      ],
      "stateMutability": "view",
      "type": "function"
    },
    {
      "inputs": [],
      "name": "renounceOwnership",
      "outputs": [],
      "stateMutability": "nonpayable",
      "type": "function"
    },
    {
      "inputs": [
        {
          "internalType": "address",
          "name": "newOwner",
          "type": "address"
        }
      ],
      "name": "transferOwnership",
      "outputs": [],
      "stateMutability": "nonpayable",
      "type": "function"
    }
  ],
  "bytecode": "0x60806040523480156200001157600080fd5b50604051620039f8380380620039f8833981810160405281019062000037919062000270565b620000576200004b620000e160201b60201c565b620000e960201b60201c565b81600260006101000a81548173ffffffffffffffffffffffffffffffffffffffff021916908373ffffffffffffffffffffffffffffffffffffffff16021790555080600160006101000a81548173ffffffffffffffffffffffffffffffffffffffff021916908373ffffffffffffffffffffffffffffffffffffffff1602179055505050620002b7565b600033905090565b60008060009054906101000a900473ffffffffffffffffffffffffffffffffffffffff169050816000806101000a81548173ffffffffffffffffffffffffffffffffffffffff021916908373ffffffffffffffffffffffffffffffffffffffff1602179055508173ffffffffffffffffffffffffffffffffffffffff168173ffffffffffffffffffffffffffffffffffffffff167f8be0079c531659141344cd1fd0a4f28419497f9722a3daafe3b4186f6b6457e060405160405180910390a35050565b600080fd5b600073ffffffffffffffffffffffffffffffffffffffff82169050919050565b6000620001df82620001b2565b9050919050565b6000620001f382620001d2565b9050919050565b6200020581620001e6565b81146200021157600080fd5b50565b6000815190506200022581620001fa565b92915050565b60006200023882620001d2565b9050919050565b6200024a816200022b565b81146200025657600080fd5b50565b6000815190506200026a816200023f565b92915050565b600080604083850312156200028a5762000289620001ad565b5b60006200029a8582860162000214565b9250506020620002ad8582860162000259565b9150509250929050565b61373180620002c76000396000f3fe608060405234801561001057600080fd5b50600436106100b45760003560e01c806396b5a7551161007157806396b5a7551461017b578063bd0a079d14610197578063c00a6fb7146101b5578063cf266ed0146101e5578063f08e6e7614610201578063f2fde38b1461021d576100b4565b8063150b7a02146100b9578063431f21da146100e95780636aadfdd014610105578063715018a61461012357806378bd79351461012d5780638da5cb5b1461015d575b600080fd5b6100d360048036038101906100ce91906124b4565b610239565b6040516100e09190612577565b60405180910390f35b61010360048036038101906100fe9190612592565b610267565b005b61010d6107fa565b60405161011a9190612608565b60405180910390f35b61012b6107ff565b005b61014760048036038101906101429190612623565b610813565b604051610154919061276a565b60405180910390f35b6101656109c4565b6040516101729190612795565b60405180910390f35b61019560048036038101906101909190612623565b6109ed565b005b61019f610ec9565b6040516101ac9190612608565b60405180910390f35b6101cf60048036038101906101ca91906127dc565b610ece565b6040516101dc919061299a565b60405180910390f35b6101ff60048036038101906101fa9190612623565b6111d5565b005b61021b600480360381019061021691906129bc565b6116c7565b005b610237600480360381019061023291906129fc565b611e27565b005b60007f150b7a023d4804d13e8c85fb27262cb750cf6ba9f9dd3bb30d90f482ceeb4b1f905095945050505050565b814211156102aa576040517f08c379a00000000000000000000000000000000000000000000000000000000081526004016102a190612a86565b60405180910390fd5b8082106102ec576040517f08c379a00000000000000000000000000000000000000000000000000000000081526004016102e390612b18565b60405180910390fd5b8260001061032f576040517f08c379a000000000000000000000000000000000000000000000000000000000815260040161032690612baa565b60405180910390fd5b3373ffffffffffffffffffffffffffffffffffffffff16600160009054906101000a900473ffffffffffffffffffffffffffffffffffffffff1673ffffffffffffffffffffffffffffffffffffffff16636352211e866040518263ffffffff1660e01b81526004016103a19190612608565b602060405180830381865afa1580156103be573d6000803e3d6000fd5b505050506040513d601f19601f820116820180604052508101906103e29190612bdf565b73ffffffffffffffffffffffffffffffffffffffff1614610438576040517f08c379a000000000000000000000000000000000000000000000000000000000815260040161042f90612c58565b60405180910390fd5b3073ffffffffffffffffffffffffffffffffffffffff16600160009054906101000a900473ffffffffffffffffffffffffffffffffffffffff1673ffffffffffffffffffffffffffffffffffffffff1663081812fc866040518263ffffffff1660e01b81526004016104aa9190612608565b602060405180830381865afa1580156104c7573d6000803e3d6000fd5b505050506040513d601f19601f820116820180604052508101906104eb9190612bdf565b73ffffffffffffffffffffffffffffffffffffffff1614610541576040517f08c379a000000000000000000000000000000000000000000000000000000000815260040161053890612cea565b60405180910390fd5b600160009054906101000a900473ffffffffffffffffffffffffffffffffffffffff1673ffffffffffffffffffffffffffffffffffffffff166342842e0e3330876040518463ffffffff1660e01b81526004016105a093929190612d0a565b600060405180830381600087803b1580156105ba57600080fd5b505af11580156105ce573d6000803e3d6000fd5b5050505060006040518061016001604052803373ffffffffffffffffffffffffffffffffffffffff168152602001868152602001858152602001600073ffffffffffffffffffffffffffffffffffffffff168152602001858152602001600073ffffffffffffffffffffffffffffffffffffffff168152602001848152602001838152602001600015158152602001600115158152602001600380549050815250905060038190806001815401808255809150506001900390600052602060002090600a020160009091909190915060008201518160000160006101000a81548173ffffffffffffffffffffffffffffffffffffffff021916908373ffffffffffffffffffffffffffffffffffffffff160217905550602082015181600101556040820151816002015560608201518160030160006101000a81548173ffffffffffffffffffffffffffffffffffffffff021916908373ffffffffffffffffffffffffffffffffffffffff1602179055506080820151816004015560a08201518160050160006101000a81548173ffffffffffffffffffffffffffffffffffffffff021916908373ffffffffffffffffffffffffffffffffffffffff16021790555060c0820151816006015560e082015181600701556101008201518160080160006101000a81548160ff0219169083151502179055506101208201518160080160016101000a81548160ff021916908315150217905550610140820151816009015550505050505050565b606e81565b610807611eaa565b6108116000611f28565b565b61081b612311565b6003828154811061082f5761082e612d41565b5b90600052602060002090600a0201604051806101600160405290816000820160009054906101000a900473ffffffffffffffffffffffffffffffffffffffff1673ffffffffffffffffffffffffffffffffffffffff1673ffffffffffffffffffffffffffffffffffffffff16815260200160018201548152602001600282015481526020016003820160009054906101000a900473ffffffffffffffffffffffffffffffffffffffff1673ffffffffffffffffffffffffffffffffffffffff1673ffffffffffffffffffffffffffffffffffffffff168152602001600482015481526020016005820160009054906101000a900473ffffffffffffffffffffffffffffffffffffffff1673ffffffffffffffffffffffffffffffffffffffff1673ffffffffffffffffffffffffffffffffffffffff16815260200160068201548152602001600782015481526020016008820160009054906101000a900460ff161515151581526020016008820160019054906101000a900460ff161515151581526020016009820154815250509050919050565b60008060009054906101000a900473ffffffffffffffffffffffffffffffffffffffff16905090565b8060038181548110610a0257610a01612d41565b5b90600052602060002090600a020160000160009054906101000a900473ffffffffffffffffffffffffffffffffffffffff1673ffffffffffffffffffffffffffffffffffffffff163373ffffffffffffffffffffffffffffffffffffffff161480610a9f5750610a706109c4565b73ffffffffffffffffffffffffffffffffffffffff163373ffffffffffffffffffffffffffffffffffffffff16145b610ade576040517f08c379a0000000000000000000000000000000000000000000000000000000008152600401610ad590612de2565b60405180910390fd5b6000151560038381548110610af657610af5612d41565b5b90600052602060002090600a020160080160009054906101000a900460ff16151514610b57576040517f08c379a0000000000000000000000000000000000000000000000000000000008152600401610b4e90612e4e565b60405180910390fd5b60038281548110610b6b57610b6a612d41565b5b90600052602060002090600a020160080160019054906101000a900460ff16610bc9576040517f08c379a0000000000000000000000000000000000000000000000000000000008152600401610bc090612eba565b60405180910390fd5b600160009054906101000a900473ffffffffffffffffffffffffffffffffffffffff1673ffffffffffffffffffffffffffffffffffffffff166342842e0e3060038581548110610c1c57610c1b612d41565b5b90600052602060002090600a020160000160009054906101000a900473ffffffffffffffffffffffffffffffffffffffff1660038681548110610c6257610c61612d41565b5b90600052602060002090600a0201600101546040518463ffffffff1660e01b8152600401610c9293929190612d0a565b600060405180830381600087803b158015610cac57600080fd5b505af1158015610cc0573d6000803e3d6000fd5b50505050600073ffffffffffffffffffffffffffffffffffffffff1660038381548110610cf057610cef612d41565b5b90600052602060002090600a020160050160009054906101000a900473ffffffffffffffffffffffffffffffffffffffff1673ffffffffffffffffffffffffffffffffffffffff1614610e4957600260009054906101000a900473ffffffffffffffffffffffffffffffffffffffff1673ffffffffffffffffffffffffffffffffffffffff1663a9059cbb60038481548110610d8f57610d8e612d41565b5b90600052602060002090600a020160050160009054906101000a900473ffffffffffffffffffffffffffffffffffffffff1660038581548110610dd557610dd4612d41565b5b90600052602060002090600a0201600401546040518363ffffffff1660e01b8152600401610e04929190612eda565b6020604051808303816000875af1158015610e23573d6000803e3d6000fd5b505050506040513d601f19601f82011682018060405250810190610e479190612f18565b505b600160038381548110610e5f57610e5e612d41565b5b90600052602060002090600a020160080160006101000a81548160ff021916908315150217905550600060038381548110610e9d57610e9c612d41565b5b90600052602060002090600a020160080160016101000a81548160ff0219169083151502179055505050565b600381565b60606000805b600380549050811015610f405783151560038281548110610ef857610ef7612d41565b5b90600052602060002090600a020160080160019054906101000a900460ff16151503610f2d578180610f2990612f74565b9250505b8080610f3890612f74565b915050610ed4565b5060008167ffffffffffffffff811115610f5d57610f5c612fbc565b5b604051908082528060200260200182016040528015610f9657816020015b610f83612311565b815260200190600190039081610f7b5790505b5090506000805b6003805490508110156111c95785151560038281548110610fc157610fc0612d41565b5b90600052602060002090600a020160080160019054906101000a900460ff161515036111b65760038181548110610ffb57610ffa612d41565b5b90600052602060002090600a0201604051806101600160405290816000820160009054906101000a900473ffffffffffffffffffffffffffffffffffffffff1673ffffffffffffffffffffffffffffffffffffffff1673ffffffffffffffffffffffffffffffffffffffff16815260200160018201548152602001600282015481526020016003820160009054906101000a900473ffffffffffffffffffffffffffffffffffffffff1673ffffffffffffffffffffffffffffffffffffffff1673ffffffffffffffffffffffffffffffffffffffff168152602001600482015481526020016005820160009054906101000a900473ffffffffffffffffffffffffffffffffffffffff1673ffffffffffffffffffffffffffffffffffffffff1673ffffffffffffffffffffffffffffffffffffffff16815260200160068201548152602001600782015481526020016008820160009054906101000a900460ff161515151581526020016008820160019054906101000a900460ff1615151515815260200160098201548152505083838151811061119c5761119b612d41565b5b602002602001018190525081806111b290612f74565b9250505b80806111c190612f74565b915050610f9d565b50819350505050919050565b80600381815481106111ea576111e9612d41565b5b90600052602060002090600a020160000160009054906101000a900473ffffffffffffffffffffffffffffffffffffffff1673ffffffffffffffffffffffffffffffffffffffff163373ffffffffffffffffffffffffffffffffffffffff16148061128757506112586109c4565b73ffffffffffffffffffffffffffffffffffffffff163373ffffffffffffffffffffffffffffffffffffffff16145b6112c6576040517f08c379a00000000000000000000000000000000000000000000000000000000081526004016112bd90612de2565b60405180910390fd5b60001515600383815481106112de576112dd612d41565b5b90600052602060002090600a020160080160009054906101000a900460ff1615151461133f576040517f08c379a000000000000000000000000000000000000000000000000000000000815260040161133690612e4e565b60405180910390fd5b6003828154811061135357611352612d41565b5b90600052602060002090600a020160080160019054906101000a900460ff166113b1576040517f08c379a00000000000000000000000000000000000000000000000000000000081526004016113a890612eba565b60405180910390fd5b600160009054906101000a900473ffffffffffffffffffffffffffffffffffffffff1673ffffffffffffffffffffffffffffffffffffffff166342842e0e306003858154811061140457611403612d41565b5b90600052602060002090600a020160050160009054906101000a900473ffffffffffffffffffffffffffffffffffffffff166003868154811061144a57611449612d41565b5b90600052602060002090600a0201600101546040518463ffffffff1660e01b815260040161147a93929190612d0a565b600060405180830381600087803b15801561149457600080fd5b505af11580156114a8573d6000803e3d6000fd5b505050506000600383815481106114c2576114c1612d41565b5b90600052602060002090600a02016004015490506000600384815481106114ec576114eb612d41565b5b90600052602060002090600a0201600201546003858154811061151257611511612d41565b5b90600052602060002090600a02016004015461152e9190612feb565b905060006064600383611541919061301f565b61154b9190613090565b90506000818461155b9190612feb565b9050600260009054906101000a900473ffffffffffffffffffffffffffffffffffffffff1673ffffffffffffffffffffffffffffffffffffffff1663a9059cbb600388815481106115af576115ae612d41565b5b90600052602060002090600a020160000160009054906101000a900473ffffffffffffffffffffffffffffffffffffffff16836040518363ffffffff1660e01b81526004016115ff929190612eda565b6020604051808303816000875af115801561161e573d6000803e3d6000fd5b505050506040513d601f19601f820116820180604052508101906116429190612f18565b5060016003878154811061165957611658612d41565b5b90600052602060002090600a020160080160006101000a81548160ff02191690831515021790555060006003878154811061169757611696612d41565b5b90600052602060002090600a020160080160016101000a81548160ff021916908315150217905550505050505050565b6000600383815481106116dd576116dc612d41565b5b90600052602060002090600a0201604051806101600160405290816000820160009054906101000a900473ffffffffffffffffffffffffffffffffffffffff1673ffffffffffffffffffffffffffffffffffffffff1673ffffffffffffffffffffffffffffffffffffffff16815260200160018201548152602001600282015481526020016003820160009054906101000a900473ffffffffffffffffffffffffffffffffffffffff1673ffffffffffffffffffffffffffffffffffffffff1673ffffffffffffffffffffffffffffffffffffffff168152602001600482015481526020016005820160009054906101000a900473ffffffffffffffffffffffffffffffffffffffff1673ffffffffffffffffffffffffffffffffffffffff1673ffffffffffffffffffffffffffffffffffffffff16815260200160068201548152602001600782015481526020016008820160009054906101000a900460ff161515151581526020016008820160019054906101000a900460ff1615151515815260200160098201548152505090508060c001514210156118b4576040517f08c379a00000000000000000000000000000000000000000000000000000000081526004016118ab9061310d565b60405180910390fd5b60001515816101000151151514611900576040517f08c379a00000000000000000000000000000000000000000000000000000000081526004016118f790612e4e565b60405180910390fd5b806101200151611945576040517f08c379a000000000000000000000000000000000000000000000000000000000815260040161193c90612eba565b60405180910390fd5b60008073ffffffffffffffffffffffffffffffffffffffff168260a0015173ffffffffffffffffffffffffffffffffffffffff16146119a0576064606e8360800151611991919061301f565b61199b9190613090565b6119a6565b81604001515b9050828111156119eb576040517f08c379a00000000000000000000000000000000000000000000000000000000081526004016119e29061319f565b60405180910390fd5b82600260009054906101000a900473ffffffffffffffffffffffffffffffffffffffff1673ffffffffffffffffffffffffffffffffffffffff166370a08231336040518263ffffffff1660e01b8152600401611a479190612795565b602060405180830381865afa158015611a64573d6000803e3d6000fd5b505050506040513d601f19601f82011682018060405250810190611a8891906131d4565b1015611ac9576040517f08c379a0000000000000000000000000000000000000000000000000000000008152600401611ac09061324d565b60405180910390fd5b82600260009054906101000a900473ffffffffffffffffffffffffffffffffffffffff1673ffffffffffffffffffffffffffffffffffffffff1663dd62ed3e33306040518363ffffffff1660e01b8152600401611b2792919061326d565b602060405180830381865afa158015611b44573d6000803e3d6000fd5b505050506040513d601f19601f82011682018060405250810190611b6891906131d4565b1015611ba9576040517f08c379a0000000000000000000000000000000000000000000000000000000008152600401611ba0906132e2565b60405180910390fd5b3373ffffffffffffffffffffffffffffffffffffffff16826000015173ffffffffffffffffffffffffffffffffffffffff1603611c1b576040517f08c379a0000000000000000000000000000000000000000000000000000000008152600401611c129061334e565b60405180910390fd5b611c49600260009054906101000a900473ffffffffffffffffffffffffffffffffffffffff16333086611fec565b600073ffffffffffffffffffffffffffffffffffffffff168260a0015173ffffffffffffffffffffffffffffffffffffffff1614611d2b57600260009054906101000a900473ffffffffffffffffffffffffffffffffffffffff1673ffffffffffffffffffffffffffffffffffffffff1663a9059cbb8360a0015184608001516040518363ffffffff1660e01b8152600401611ce6929190612eda565b6020604051808303816000875af1158015611d05573d6000803e3d6000fd5b505050506040513d601f19601f82011682018060405250810190611d299190612f18565b505b8160a0015160038581548110611d4457611d43612d41565b5b90600052602060002090600a020160030160006101000a81548173ffffffffffffffffffffffffffffffffffffffff021916908373ffffffffffffffffffffffffffffffffffffffff1602179055503360038581548110611da857611da7612d41565b5b90600052602060002090600a020160050160006101000a81548173ffffffffffffffffffffffffffffffffffffffff021916908373ffffffffffffffffffffffffffffffffffffffff1602179055508260038581548110611e0c57611e0b612d41565b5b90600052602060002090600a02016004018190555050505050565b611e2f611eaa565b600073ffffffffffffffffffffffffffffffffffffffff168173ffffffffffffffffffffffffffffffffffffffff1603611e9e576040517f08c379a0000000000000000000000000000000000000000000000000000000008152600401611e95906133e0565b60405180910390fd5b611ea781611f28565b50565b611eb2612075565b73ffffffffffffffffffffffffffffffffffffffff16611ed06109c4565b73ffffffffffffffffffffffffffffffffffffffff1614611f26576040517f08c379a0000000000000000000000000000000000000000000000000000000008152600401611f1d9061344c565b60405180910390fd5b565b60008060009054906101000a900473ffffffffffffffffffffffffffffffffffffffff169050816000806101000a81548173ffffffffffffffffffffffffffffffffffffffff021916908373ffffffffffffffffffffffffffffffffffffffff1602179055508173ffffffffffffffffffffffffffffffffffffffff168173ffffffffffffffffffffffffffffffffffffffff167f8be0079c531659141344cd1fd0a4f28419497f9722a3daafe3b4186f6b6457e060405160405180910390a35050565b61206f846323b872dd60e01b85858560405160240161200d93929190612d0a565b604051602081830303815290604052907bffffffffffffffffffffffffffffffffffffffffffffffffffffffff19166020820180517bffffffffffffffffffffffffffffffffffffffffffffffffffffffff838183161783525050505061207d565b50505050565b600033905090565b60006120df826040518060400160405280602081526020017f5361666545524332303a206c6f772d6c6576656c2063616c6c206661696c65648152508573ffffffffffffffffffffffffffffffffffffffff166121449092919063ffffffff16565b905060008151111561213f57808060200190518101906120ff9190612f18565b61213e576040517f08c379a0000000000000000000000000000000000000000000000000000000008152600401612135906134de565b60405180910390fd5b5b505050565b6060612153848460008561215c565b90509392505050565b6060824710156121a1576040517f08c379a000000000000000000000000000000000000000000000000000000000815260040161219890613570565b60405180910390fd5b6000808673ffffffffffffffffffffffffffffffffffffffff1685876040516121ca9190613601565b60006040518083038185875af1925050503d8060008114612207576040519150601f19603f3d011682016040523d82523d6000602084013e61220c565b606091505b509150915061221d87838387612229565b92505050949350505050565b6060831561228b576000835103612283576122438561229e565b612282576040517f08c379a000000000000000000000000000000000000000000000000000000000815260040161227990613664565b60405180910390fd5b5b829050612296565b61229583836122c1565b5b949350505050565b6000808273ffffffffffffffffffffffffffffffffffffffff163b119050919050565b6000825111156122d45781518083602001fd5b806040517f08c379a000000000000000000000000000000000000000000000000000000000815260040161230891906136d9565b60405180910390fd5b604051806101600160405280600073ffffffffffffffffffffffffffffffffffffffff1681526020016000815260200160008152602001600073ffffffffffffffffffffffffffffffffffffffff16815260200160008152602001600073ffffffffffffffffffffffffffffffffffffffff1681526020016000815260200160008152602001600015158152602001600015158152602001600081525090565b600080fd5b600080fd5b600073ffffffffffffffffffffffffffffffffffffffff82169050919050565b60006123e6826123bb565b9050919050565b6123f6816123db565b811461240157600080fd5b50565b600081359050612413816123ed565b92915050565b6000819050919050565b61242c81612419565b811461243757600080fd5b50565b60008135905061244981612423565b92915050565b600080fd5b600080fd5b600080fd5b60008083601f8401126124745761247361244f565b5b8235905067ffffffffffffffff81111561249157612490612454565b5b6020830191508360018202830111156124ad576124ac612459565b5b9250929050565b6000806000806000608086880312156124d0576124cf6123b1565b5b60006124de88828901612404565b95505060206124ef88828901612404565b94505060406125008882890161243a565b935050606086013567ffffffffffffffff811115612521576125206123b6565b5b61252d8882890161245e565b92509250509295509295909350565b60007fffffffff0000000000000000000000000000000000000000000000000000000082169050919050565b6125718161253c565b82525050565b600060208201905061258c6000830184612568565b92915050565b600080600080608085870312156125ac576125ab6123b1565b5b60006125ba8782880161243a565b94505060206125cb8782880161243a565b93505060406125dc8782880161243a565b92505060606125ed8782880161243a565b91505092959194509250565b61260281612419565b82525050565b600060208201905061261d60008301846125f9565b92915050565b600060208284031215612639576126386123b1565b5b60006126478482850161243a565b91505092915050565b612659816123db565b82525050565b61266881612419565b82525050565b60008115159050919050565b6126838161266e565b82525050565b610160820160008201516126a06000850182612650565b5060208201516126b3602085018261265f565b5060408201516126c6604085018261265f565b5060608201516126d96060850182612650565b5060808201516126ec608085018261265f565b5060a08201516126ff60a0850182612650565b5060c082015161271260c085018261265f565b5060e082015161272560e085018261265f565b5061010082015161273a61010085018261267a565b5061012082015161274f61012085018261267a565b5061014082015161276461014085018261265f565b50505050565b6000610160820190506127806000830184612689565b92915050565b61278f816123db565b82525050565b60006020820190506127aa6000830184612786565b92915050565b6127b98161266e565b81146127c457600080fd5b50565b6000813590506127d6816127b0565b92915050565b6000602082840312156127f2576127f16123b1565b5b6000612800848285016127c7565b91505092915050565b600081519050919050565b600082825260208201905092915050565b6000819050602082019050919050565b6101608201600082015161284c6000850182612650565b50602082015161285f602085018261265f565b506040820151612872604085018261265f565b5060608201516128856060850182612650565b506080820151612898608085018261265f565b5060a08201516128ab60a0850182612650565b5060c08201516128be60c085018261265f565b5060e08201516128d160e085018261265f565b506101008201516128e661010085018261267a565b506101208201516128fb61012085018261267a565b5061014082015161291061014085018261265f565b50505050565b60006129228383612835565b6101608301905092915050565b6000602082019050919050565b600061294782612809565b6129518185612814565b935061295c83612825565b8060005b8381101561298d5781516129748882612916565b975061297f8361292f565b925050600181019050612960565b5085935050505092915050565b600060208201905081810360008301526129b4818461293c565b905092915050565b600080604083850312156129d3576129d26123b1565b5b60006129e18582860161243a565b92505060206129f28582860161243a565b9150509250929050565b600060208284031215612a1257612a116123b1565b5b6000612a2084828501612404565b91505092915050565b600082825260208201905092915050565b7f41756374696f6e2063616e206e6f742073746172740000000000000000000000600082015250565b6000612a70601583612a29565b9150612a7b82612a3a565b602082019050919050565b60006020820190508181036000830152612a9f81612a63565b9050919050565b7f41756374696f6e2063616e206e6f7420656e64206265666f726520697420737460008201527f6172747300000000000000000000000000000000000000000000000000000000602082015250565b6000612b02602483612a29565b9150612b0d82612aa6565b604082019050919050565b60006020820190508181036000830152612b3181612af5565b9050919050565b7f496e697469616c207072696365206d757374206265206772656174657220746860008201527f616e203000000000000000000000000000000000000000000000000000000000602082015250565b6000612b94602483612a29565b9150612b9f82612b38565b604082019050919050565b60006020820190508181036000830152612bc381612b87565b9050919050565b600081519050612bd9816123ed565b92915050565b600060208284031215612bf557612bf46123b1565b5b6000612c0384828501612bca565b91505092915050565b7f4d757374207374616b6520796f7572206f776e20746f6b656e00000000000000600082015250565b6000612c42601983612a29565b9150612c4d82612c0c565b602082019050919050565b60006020820190508181036000830152612c7181612c35565b9050919050565b7f5468697320636f6e7472616374206d75737420626520617070726f766564207460008201527f6f207472616e736665722074686520746f6b656e000000000000000000000000602082015250565b6000612cd4603483612a29565b9150612cdf82612c78565b604082019050919050565b60006020820190508181036000830152612d0381612cc7565b9050919050565b6000606082019050612d1f6000830186612786565b612d2c6020830185612786565b612d3960408301846125f9565b949350505050565b7f4e487b7100000000000000000000000000000000000000000000000000000000600052603260045260246000fd5b7f4f6e6c792061756374696f6e656572206f72206f776e65722063616e2070657260008201527f666f726d207468697320616374696f6e00000000000000000000000000000000602082015250565b6000612dcc603083612a29565b9150612dd782612d70565b604082019050919050565b60006020820190508181036000830152612dfb81612dbf565b9050919050565b7f41756374696f6e20697320616c726561647920636f6d706c6574656400000000600082015250565b6000612e38601c83612a29565b9150612e4382612e02565b602082019050919050565b60006020820190508181036000830152612e6781612e2b565b9050919050565b7f41756374696f6e206973206e6f74206163746976650000000000000000000000600082015250565b6000612ea4601583612a29565b9150612eaf82612e6e565b602082019050919050565b60006020820190508181036000830152612ed381612e97565b9050919050565b6000604082019050612eef6000830185612786565b612efc60208301846125f9565b9392505050565b600081519050612f12816127b0565b92915050565b600060208284031215612f2e57612f2d6123b1565b5b6000612f3c84828501612f03565b91505092915050565b7f4e487b7100000000000000000000000000000000000000000000000000000000600052601160045260246000fd5b6000612f7f82612419565b91507fffffffffffffffffffffffffffffffffffffffffffffffffffffffffffffffff8203612fb157612fb0612f45565b5b600182019050919050565b7f4e487b7100000000000000000000000000000000000000000000000000000000600052604160045260246000fd5b6000612ff682612419565b915061300183612419565b925082820390508181111561301957613018612f45565b5b92915050565b600061302a82612419565b915061303583612419565b925082820261304381612419565b9150828204841483151761305a57613059612f45565b5b5092915050565b7f4e487b7100000000000000000000000000000000000000000000000000000000600052601260045260246000fd5b600061309b82612419565b91506130a683612419565b9250826130b6576130b5613061565b5b828204905092915050565b7f41756374696f6e20686173206e6f742073746172746564000000000000000000600082015250565b60006130f7601783612a29565b9150613102826130c1565b602082019050919050565b60006020820190508181036000830152613126816130ea565b9050919050565b7f426964207072696365206d7573742062652067726561746572207468616e207460008201527f6865206d696e696d756d20707269636500000000000000000000000000000000602082015250565b6000613189603083612a29565b91506131948261312d565b604082019050919050565b600060208201905081810360008301526131b88161317c565b9050919050565b6000815190506131ce81612423565b92915050565b6000602082840312156131ea576131e96123b1565b5b60006131f8848285016131bf565b91505092915050565b7f496e73756666696369656e742062616c616e6365000000000000000000000000600082015250565b6000613237601483612a29565b915061324282613201565b602082019050919050565b600060208201905081810360008301526132668161322a565b9050919050565b60006040820190506132826000830185612786565b61328f6020830184612786565b9392505050565b7f496e73756666696369656e7420616c6c6f77616e636500000000000000000000600082015250565b60006132cc601683612a29565b91506132d782613296565b602082019050919050565b600060208201905081810360008301526132fb816132bf565b9050919050565b7f43616e206e6f7420626964206f6e20796f7572206f776e2061756374696f6e00600082015250565b6000613338601f83612a29565b915061334382613302565b602082019050919050565b600060208201905081810360008301526133678161332b565b9050919050565b7f4f776e61626c653a206e6577206f776e657220697320746865207a65726f206160008201527f6464726573730000000000000000000000000000000000000000000000000000602082015250565b60006133ca602683612a29565b91506133d58261336e565b604082019050919050565b600060208201905081810360008301526133f9816133bd565b9050919050565b7f4f776e61626c653a2063616c6c6572206973206e6f7420746865206f776e6572600082015250565b6000613436602083612a29565b915061344182613400565b602082019050919050565b6000602082019050818103600083015261346581613429565b9050919050565b7f5361666545524332303a204552433230206f7065726174696f6e20646964206e60008201527f6f74207375636365656400000000000000000000000000000000000000000000602082015250565b60006134c8602a83612a29565b91506134d38261346c565b604082019050919050565b600060208201905081810360008301526134f7816134bb565b9050919050565b7f416464726573733a20696e73756666696369656e742062616c616e636520666f60008201527f722063616c6c0000000000000000000000000000000000000000000000000000602082015250565b600061355a602683612a29565b9150613565826134fe565b604082019050919050565b600060208201905081810360008301526135898161354d565b9050919050565b600081519050919050565b600081905092915050565b60005b838110156135c45780820151818401526020810190506135a9565b60008484015250505050565b60006135db82613590565b6135e5818561359b565b93506135f58185602086016135a6565b80840191505092915050565b600061360d82846135d0565b915081905092915050565b7f416464726573733a2063616c6c20746f206e6f6e2d636f6e7472616374000000600082015250565b600061364e601d83612a29565b915061365982613618565b602082019050919050565b6000602082019050818103600083015261367d81613641565b9050919050565b600081519050919050565b6000601f19601f8301169050919050565b60006136ab82613684565b6136b58185612a29565b93506136c58185602086016135a6565b6136ce8161368f565b840191505092915050565b600060208201905081810360008301526136f381846136a0565b90509291505056fea26469706673582212202eeb42df9b40f17831205f91911fa8af294ea44ad4a54917444ea46ee06c5ef864736f6c63430008110033",
  "linkReferences": {},
  "deployedLinkReferences": {}
}